{
  "_format": "hh-sol-artifact-1",
  "contractName": "DeTrainMarketplace",
  "sourceName": "contracts/DeTrainMarketplace.sol",
  "abi": [
    {
      "anonymous": false,
      "inputs": [
        {
          "indexed": true,
          "internalType": "uint256",
          "name": "bountyId",
          "type": "uint256"
        }
      ],
      "name": "BountyClosed",
      "type": "event"
    },
    {
      "anonymous": false,
      "inputs": [
        {
          "indexed": true,
          "internalType": "uint256",
          "name": "bountyId",
          "type": "uint256"
        },
        {
          "indexed": true,
          "internalType": "address",
          "name": "labOwner",
          "type": "address"
        }
      ],
      "name": "BountyCreated",
      "type": "event"
    },
    {
      "anonymous": false,
      "inputs": [
        {
          "indexed": true,
          "internalType": "uint256",
          "name": "bountyId",
          "type": "uint256"
        },
        {
          "indexed": true,
          "internalType": "address",
          "name": "labOwner",
          "type": "address"
        },
        {
          "indexed": false,
          "internalType": "uint256",
          "name": "amount",
          "type": "uint256"
        }
      ],
      "name": "LabWithdrew",
      "type": "event"
    },
    {
      "anonymous": false,
      "inputs": [
        {
          "indexed": true,
          "internalType": "uint256",
          "name": "bountyId",
          "type": "uint256"
        },
        {
          "indexed": true,
          "internalType": "uint256",
          "name": "submissionId",
          "type": "uint256"
        },
        {
          "indexed": true,
          "internalType": "address",
          "name": "submitter",
          "type": "address"
        },
        {
          "indexed": false,
          "internalType": "uint256",
          "name": "payout",
          "type": "uint256"
        }
      ],
      "name": "SubmissionMade",
      "type": "event"
    },
    {
      "inputs": [
        {
          "internalType": "uint256",
          "name": "",
          "type": "uint256"
        }
      ],
      "name": "bounties",
      "outputs": [
        {
          "internalType": "uint256",
          "name": "id",
          "type": "uint256"
        },
        {
          "internalType": "address",
          "name": "labOwner",
          "type": "address"
        },
        {
          "internalType": "string",
          "name": "description",
          "type": "string"
        },
        {
          "internalType": "string",
          "name": "metadataURI",
          "type": "string"
        },
        {
          "internalType": "uint256",
          "name": "rewardAmount",
          "type": "uint256"
        },
        {
          "internalType": "uint256",
          "name": "maxSubmissions",
          "type": "uint256"
        },
        {
          "internalType": "uint256",
          "name": "submissionCount",
          "type": "uint256"
        },
        {
          "internalType": "bool",
          "name": "isOpen",
          "type": "bool"
        }
      ],
      "stateMutability": "view",
      "type": "function"
    },
    {
      "inputs": [
        {
          "internalType": "uint256",
          "name": "",
          "type": "uint256"
        },
        {
          "internalType": "uint256",
          "name": "",
          "type": "uint256"
        }
      ],
      "name": "bountySubmissions",
      "outputs": [
        {
          "internalType": "uint256",
          "name": "",
          "type": "uint256"
        }
      ],
      "stateMutability": "view",
      "type": "function"
    },
    {
      "inputs": [
        {
          "internalType": "uint256",
          "name": "bountyId",
          "type": "uint256"
        }
      ],
      "name": "closeBounty",
      "outputs": [],
      "stateMutability": "nonpayable",
      "type": "function"
    },
    {
      "inputs": [
        {
          "internalType": "string",
          "name": "description",
          "type": "string"
        },
        {
          "internalType": "string",
          "name": "metadataURI",
          "type": "string"
        },
        {
          "internalType": "uint256",
          "name": "rewardAmount",
          "type": "uint256"
        },
        {
          "internalType": "uint256",
          "name": "maxSubmissions",
          "type": "uint256"
        }
      ],
      "name": "createBounty",
      "outputs": [],
      "stateMutability": "payable",
      "type": "function"
    },
    {
      "inputs": [
        {
          "internalType": "uint256",
          "name": "bountyId",
          "type": "uint256"
        }
      ],
      "name": "getBountySubmissions",
      "outputs": [
        {
          "internalType": "uint256[]",
          "name": "",
          "type": "uint256[]"
        }
      ],
      "stateMutability": "view",
      "type": "function"
    },
    {
      "inputs": [],
      "name": "nextBountyId",
      "outputs": [
        {
          "internalType": "uint256",
          "name": "",
          "type": "uint256"
        }
      ],
      "stateMutability": "view",
      "type": "function"
    },
    {
      "inputs": [],
      "name": "nextSubmissionId",
      "outputs": [
        {
          "internalType": "uint256",
          "name": "",
          "type": "uint256"
        }
      ],
      "stateMutability": "view",
      "type": "function"
    },
    {
      "inputs": [
        {
          "internalType": "uint256",
          "name": "",
          "type": "uint256"
        }
      ],
      "name": "submissions",
      "outputs": [
        {
          "internalType": "uint256",
          "name": "id",
          "type": "uint256"
        },
        {
          "internalType": "uint256",
          "name": "bountyId",
          "type": "uint256"
        },
        {
          "internalType": "address",
          "name": "submitter",
          "type": "address"
        },
        {
          "internalType": "string",
          "name": "dataHash",
          "type": "string"
        },
        {
          "internalType": "uint256",
          "name": "payout",
          "type": "uint256"
        },
        {
          "internalType": "uint256",
          "name": "timestamp",
          "type": "uint256"
        }
      ],
      "stateMutability": "view",
      "type": "function"
    },
    {
      "inputs": [
        {
          "internalType": "uint256",
          "name": "bountyId",
          "type": "uint256"
        },
        {
          "internalType": "string",
          "name": "dataHash",
          "type": "string"
        }
      ],
      "name": "submitData",
      "outputs": [],
      "stateMutability": "nonpayable",
      "type": "function"
    },
    {
      "inputs": [
        {
          "internalType": "uint256",
          "name": "bountyId",
          "type": "uint256"
        }
      ],
      "name": "withdrawLeftover",
      "outputs": [],
      "stateMutability": "nonpayable",
      "type": "function"
    },
    {
      "stateMutability": "payable",
      "type": "receive"
    }
  ],
  "bytecode": "0x608060405260016000556001805534801561001957600080fd5b50611179806100296000396000f3fe6080604052600436106100955760003560e01c8063b988997f11610059578063b988997f1461016b578063dc2f87441461018b578063e31202c0146101bf578063eebe057a146101d2578063fd14fad4146101f257600080fd5b806335b96901146100a1578063429e2398146100ca57806357a505ba146100ea57806392af09621461010c578063ad73349e1461013957600080fd5b3661009c57005b600080fd5b3480156100ad57600080fd5b506100b760015481565b6040519081526020015b60405180910390f35b3480156100d657600080fd5b506100b76100e5366004610c45565b610208565b3480156100f657600080fd5b5061010a610105366004610c67565b610239565b005b34801561011857600080fd5b5061012c610127366004610c67565b61044b565b6040516100c19190610c80565b34801561014557600080fd5b50610159610154366004610c67565b6104ad565b6040516100c196959493929190610d0a565b34801561017757600080fd5b5061010a610186366004610c67565b610577565b34801561019757600080fd5b506101ab6101a6366004610c67565b610651565b6040516100c1989796959493929190610d4c565b61010a6101cd366004610dfe565b6107b1565b3480156101de57600080fd5b5061010a6101ed366004610e7c565b610953565b3480156101fe57600080fd5b506100b760005481565b6004602052816000526040600020818154811061022457600080fd5b90600052602060002001600091509150505481565b600081815260026020526040902060018101546001600160a01b031633146102985760405162461bcd60e51b815260206004820152600d60248201526c2737ba103630b11037bbb732b960991b60448201526064015b60405180910390fd5b600781015460ff16156102e25760405162461bcd60e51b815260206004820152601260248201527110db1bdcd948189bdd5b9d1e48199a5c9cdd60721b604482015260640161028f565b6000816004015482600601546102f89190610ede565b90506000826004015483600501546103109190610ede565b9050600061031e8383610efb565b9050600081116103665760405162461bcd60e51b81526020600482015260136024820152724e6f7468696e6720746f20776974686472617760681b604482015260640161028f565b60018401546040516000916001600160a01b03169083908381818185875af1925050503d80600081146103b5576040519150601f19603f3d011682016040523d82523d6000602084013e6103ba565b606091505b50509050806103fd5760405162461bcd60e51b815260206004820152600f60248201526e151c985b9cd9995c8819985a5b1959608a1b604482015260640161028f565b60018501546040518381526001600160a01b039091169087907fd1a2f85e35129b58c35bd7bab80093b2740869ac7aadd9e40ec4ccffca3ea5809060200160405180910390a3505050505050565b6000818152600460209081526040918290208054835181840281018401909452808452606093928301828280156104a157602002820191906000526020600020905b81548152602001906001019080831161048d575b50505050509050919050565b60036020819052600091825260409091208054600182015460028301549383018054929491936001600160a01b03909216926104e890610f0e565b80601f016020809104026020016040519081016040528092919081815260200182805461051490610f0e565b80156105615780601f1061053657610100808354040283529160200191610561565b820191906000526020600020905b81548152906001019060200180831161054457829003601f168201915b5050505050908060040154908060050154905086565b600081815260026020526040902060018101546001600160a01b031633146105d15760405162461bcd60e51b815260206004820152600d60248201526c2737ba103630b11037bbb732b960991b604482015260640161028f565b600781015460ff166106165760405162461bcd60e51b815260206004820152600e60248201526d105b1c9958591e4818db1bdcd95960921b604482015260640161028f565b60078101805460ff1916905560405182907fff840b42647bf84c0308a1955e1858034ea0859a8b46b1ad7f0dc915e384a23d90600090a25050565b600260208190526000918252604090912080546001820154928201805491936001600160a01b0316929161068490610f0e565b80601f01602080910402602001604051908101604052809291908181526020018280546106b090610f0e565b80156106fd5780601f106106d2576101008083540402835291602001916106fd565b820191906000526020600020905b8154815290600101906020018083116106e057829003601f168201915b50505050509080600301805461071290610f0e565b80601f016020809104026020016040519081016040528092919081815260200182805461073e90610f0e565b801561078b5780601f106107605761010080835404028352916020019161078b565b820191906000526020600020905b81548152906001019060200180831161076e57829003601f168201915b505050506004830154600584015460068501546007909501549394919390925060ff1688565b600082116107f65760405162461bcd60e51b81526020600482015260126024820152710526577617264206d757374206265203e20360741b604482015260640161028f565b600081116108465760405162461bcd60e51b815260206004820152601a60248201527f6d61785375626d697373696f6e73206d757374206265203e2030000000000000604482015260640161028f565b60006108528284610ede565b90508034146108a35760405162461bcd60e51b815260206004820152601b60248201527f496e636f7272656374206e617469766520746f6b656e2073656e740000000000604482015260640161028f565b600080548082526002602081905260409092209081556001810180546001600160a01b031916331790559081016108db888a83610fa9565b50600381016108eb868883610fa9565b50600481018490556005810183905560078101805460ff191660011790556000805460405133927fa42a102b7be732c6c110f2a200de7ae4a49832e42c61c6c194cf1c94fbc5042e91a36000805490806109448361106a565b91905055505050505050505050565b6000838152600260205260409020600781015460ff166109a55760405162461bcd60e51b815260206004820152600d60248201526c109bdd5b9d1e4818db1bdcd959609a1b604482015260640161028f565b80600501548160060154106109e55760405162461bcd60e51b815260040161028f90602080825260049082015263119d5b1b60e21b604082015260600190565b60018054600091826109f68361106a565b9190505590506040518060c00160405280828152602001868152602001336001600160a01b0316815260200185858080601f016020809104026020016040519081016040528093929190818152602001838380828437600092018290525093855250505060048501546020808401919091524260409384015284825260038082529183902084518155908401516001820155918301516002830180546001600160a01b0319166001600160a01b03909216919091179055606083015190820190610ac09082611083565b50608082015160048083019190915560a0909201516005909101556000868152602091825260408120805460018101825590825291812090910182905560068301805491610b0d8361106a565b9091555050600482015460405160009133918381818185875af1925050503d8060008114610b57576040519150601f19603f3d011682016040523d82523d6000602084013e610b5c565b606091505b5050905080610bad5760405162461bcd60e51b815260206004820152601c60248201527f4e617469766520746f6b656e207472616e73666572206661696c656400000000604482015260640161028f565b336001600160a01b031682877f2d04bb43811d5210fcfd5ac94d87a674f20806150176224ef0b83f23d6a0929f8660040154604051610bee91815260200190565b60405180910390a48260050154836006015403610c3d5760078301805460ff1916905560405186907fff840b42647bf84c0308a1955e1858034ea0859a8b46b1ad7f0dc915e384a23d90600090a25b505050505050565b60008060408385031215610c5857600080fd5b50508035926020909101359150565b600060208284031215610c7957600080fd5b5035919050565b6020808252825182820181905260009190848201906040850190845b81811015610cb857835183529284019291840191600101610c9c565b50909695505050505050565b6000815180845260005b81811015610cea57602081850181015186830182015201610cce565b506000602082860101526020601f19601f83011685010191505092915050565b86815285602082015260018060a01b038516604082015260c060608201526000610d3760c0830186610cc4565b60808301949094525060a00152949350505050565b8881526001600160a01b038816602082015261010060408201819052600090610d778382018a610cc4565b90508281036060840152610d8b8189610cc4565b9150508560808301528460a08301528360c083015282151560e08301529998505050505050505050565b60008083601f840112610dc757600080fd5b50813567ffffffffffffffff811115610ddf57600080fd5b602083019150836020828501011115610df757600080fd5b9250929050565b60008060008060008060808789031215610e1757600080fd5b863567ffffffffffffffff80821115610e2f57600080fd5b610e3b8a838b01610db5565b90985096506020890135915080821115610e5457600080fd5b50610e6189828a01610db5565b979a9699509760408101359660609091013595509350505050565b600080600060408486031215610e9157600080fd5b83359250602084013567ffffffffffffffff811115610eaf57600080fd5b610ebb86828701610db5565b9497909650939450505050565b634e487b7160e01b600052601160045260246000fd5b8082028115828204841417610ef557610ef5610ec8565b92915050565b81810381811115610ef557610ef5610ec8565b600181811c90821680610f2257607f821691505b602082108103610f4257634e487b7160e01b600052602260045260246000fd5b50919050565b634e487b7160e01b600052604160045260246000fd5b601f821115610fa457600081815260208120601f850160051c81016020861015610f855750805b601f850160051c820191505b81811015610c3d57828155600101610f91565b505050565b67ffffffffffffffff831115610fc157610fc1610f48565b610fd583610fcf8354610f0e565b83610f5e565b6000601f8411600181146110095760008515610ff15750838201355b600019600387901b1c1916600186901b178355611063565b600083815260209020601f19861690835b8281101561103a578685013582556020948501946001909201910161101a565b50868210156110575760001960f88860031b161c19848701351681555b505060018560011b0183555b5050505050565b60006001820161107c5761107c610ec8565b5060010190565b815167ffffffffffffffff81111561109d5761109d610f48565b6110b1816110ab8454610f0e565b84610f5e565b602080601f8311600181146110e657600084156110ce5750858301515b600019600386901b1c1916600185901b178555610c3d565b600085815260208120601f198616915b82811015611115578886015182559484019460019091019084016110f6565b50858210156111335787850151600019600388901b60f8161c191681555b5050505050600190811b0190555056fea26469706673582212209aea86cafcd154fc1829d6cece4cfa912f587b2d7dfcae465b84f4cdf725776d64736f6c63430008130033",
  "linkReferences": {},
  "deployedLinkReferences": {}
}