{
  "_format": "hh-sol-artifact-1",
  "contractName": "DataTraining",
  "sourceName": "contracts/DataTraining.sol",
  "abi": [
    {
      "inputs": [
        {
          "internalType": "address",
          "name": "initialRewardToken",
          "type": "address"
        },
        {
          "internalType": "bytes21",
          "name": "_roflAppId",
          "type": "bytes21"
        },
        {
          "internalType": "address",
          "name": "initialOwner",
          "type": "address"
        }
      ],
      "stateMutability": "nonpayable",
      "type": "constructor"
    },
    {
      "inputs": [
        {
          "internalType": "address",
          "name": "owner",
          "type": "address"
        }
      ],
      "name": "OwnableInvalidOwner",
      "type": "error"
    },
    {
      "inputs": [
        {
          "internalType": "address",
          "name": "account",
          "type": "address"
        }
      ],
      "name": "OwnableUnauthorizedAccount",
      "type": "error"
    },
    {
      "inputs": [],
      "name": "RoflOriginNotAuthorizedForApp",
      "type": "error"
    },
    {
      "inputs": [],
      "name": "SubcallError",
      "type": "error"
    },
    {
      "anonymous": false,
      "inputs": [
        {
          "indexed": true,
          "internalType": "uint256",
          "name": "submissionId",
          "type": "uint256"
        },
        {
          "indexed": true,
          "internalType": "address",
          "name": "contributor",
          "type": "address"
        },
        {
          "indexed": false,
          "internalType": "string",
          "name": "dataHash",
          "type": "string"
        }
      ],
      "name": "DataSubmitted",
      "type": "event"
    },
    {
      "anonymous": false,
      "inputs": [
        {
          "indexed": true,
          "internalType": "uint256",
          "name": "submissionId",
          "type": "uint256"
        },
        {
          "indexed": false,
          "internalType": "int256",
          "name": "accuracyDelta",
          "type": "int256"
        },
        {
          "indexed": false,
          "internalType": "uint256",
          "name": "payout",
          "type": "uint256"
        }
      ],
      "name": "EvaluationReported",
      "type": "event"
    },
    {
      "anonymous": false,
      "inputs": [
        {
          "indexed": true,
          "internalType": "address",
          "name": "previousOwner",
          "type": "address"
        },
        {
          "indexed": true,
          "internalType": "address",
          "name": "newOwner",
          "type": "address"
        }
      ],
      "name": "OwnershipTransferred",
      "type": "event"
    },
    {
      "anonymous": false,
      "inputs": [
        {
          "indexed": false,
          "internalType": "uint256",
          "name": "amount",
          "type": "uint256"
        }
      ],
      "name": "RewardPoolFunded",
      "type": "event"
    },
    {
      "inputs": [],
      "name": "baseReward",
      "outputs": [
        {
          "internalType": "uint256",
          "name": "",
          "type": "uint256"
        }
      ],
      "stateMutability": "view",
      "type": "function"
    },
    {
      "inputs": [],
      "name": "bonusMultiplier",
      "outputs": [
        {
          "internalType": "uint256",
          "name": "",
          "type": "uint256"
        }
      ],
      "stateMutability": "view",
      "type": "function"
    },
    {
      "inputs": [
        {
          "internalType": "uint256",
          "name": "amount",
          "type": "uint256"
        }
      ],
      "name": "fundRewardPool",
      "outputs": [],
      "stateMutability": "payable",
      "type": "function"
    },
    {
      "inputs": [],
      "name": "nextSubmissionId",
      "outputs": [
        {
          "internalType": "uint256",
          "name": "",
          "type": "uint256"
        }
      ],
      "stateMutability": "view",
      "type": "function"
    },
    {
      "inputs": [],
      "name": "owner",
      "outputs": [
        {
          "internalType": "address",
          "name": "",
          "type": "address"
        }
      ],
      "stateMutability": "view",
      "type": "function"
    },
    {
      "inputs": [],
      "name": "renounceOwnership",
      "outputs": [],
      "stateMutability": "nonpayable",
      "type": "function"
    },
    {
      "inputs": [
        {
          "internalType": "uint256",
          "name": "submissionId",
          "type": "uint256"
        },
        {
          "internalType": "int256",
          "name": "accuracyDelta",
          "type": "int256"
        }
      ],
      "name": "reportEvaluation",
      "outputs": [],
      "stateMutability": "nonpayable",
      "type": "function"
    },
    {
      "inputs": [],
      "name": "rewardPool",
      "outputs": [
        {
          "internalType": "uint256",
          "name": "",
          "type": "uint256"
        }
      ],
      "stateMutability": "view",
      "type": "function"
    },
    {
      "inputs": [],
      "name": "rewardToken",
      "outputs": [
        {
          "internalType": "contract IERC20",
          "name": "",
          "type": "address"
        }
      ],
      "stateMutability": "view",
      "type": "function"
    },
    {
      "inputs": [],
      "name": "roflAppId",
      "outputs": [
        {
          "internalType": "bytes21",
          "name": "",
          "type": "bytes21"
        }
      ],
      "stateMutability": "view",
      "type": "function"
    },
    {
      "inputs": [
        {
          "internalType": "uint256",
          "name": "newBaseReward",
          "type": "uint256"
        }
      ],
      "name": "setBaseReward",
      "outputs": [],
      "stateMutability": "nonpayable",
      "type": "function"
    },
    {
      "inputs": [
        {
          "internalType": "uint256",
          "name": "newMultiplier",
          "type": "uint256"
        }
      ],
      "name": "setBonusMultiplier",
      "outputs": [],
      "stateMutability": "nonpayable",
      "type": "function"
    },
    {
      "inputs": [
        {
          "internalType": "bytes21",
          "name": "newId",
          "type": "bytes21"
        }
      ],
      "name": "setRoflAppId",
      "outputs": [],
      "stateMutability": "nonpayable",
      "type": "function"
    },
    {
      "inputs": [
        {
          "internalType": "uint256",
          "name": "",
          "type": "uint256"
        }
      ],
      "name": "submissions",
      "outputs": [
        {
          "internalType": "address",
          "name": "contributor",
          "type": "address"
        },
        {
          "internalType": "string",
          "name": "dataHash",
          "type": "string"
        },
        {
          "internalType": "enum DataTraining.SubmissionStatus",
          "name": "status",
          "type": "uint8"
        },
        {
          "internalType": "int256",
          "name": "accuracyDelta",
          "type": "int256"
        },
        {
          "internalType": "uint256",
          "name": "payout",
          "type": "uint256"
        }
      ],
      "stateMutability": "view",
      "type": "function"
    },
    {
      "inputs": [
        {
          "internalType": "string",
          "name": "dataHash",
          "type": "string"
        }
      ],
      "name": "submitData",
      "outputs": [],
      "stateMutability": "nonpayable",
      "type": "function"
    },
    {
      "inputs": [
        {
          "internalType": "address",
          "name": "newOwner",
          "type": "address"
        }
      ],
      "name": "transferOwnership",
      "outputs": [],
      "stateMutability": "nonpayable",
      "type": "function"
    },
    {
      "inputs": [],
      "name": "withdrawRemainingFunds",
      "outputs": [],
      "stateMutability": "nonpayable",
      "type": "function"
    }
  ],
  "bytecode": "0x60806040526298968060065560646007553480156200001d57600080fd5b50604051620014ad380380620014ad83398101604081905262000040916200012b565b806001600160a01b0381166200007057604051631e4fbdf760e01b81526000600482015260240160405180910390fd5b6200007b81620000be565b5050600180546001600160a01b0319166001600160a01b039390931692909217909155600480546001600160a81b03191660589290921c91909117905562000184565b600080546001600160a01b038381166001600160a01b0319831681178455604051919092169283917f8be0079c531659141344cd1fd0a4f28419497f9722a3daafe3b4186f6b6457e09190a35050565b80516001600160a01b03811681146200012657600080fd5b919050565b6000806000606084860312156200014157600080fd5b6200014c846200010e565b60208501519093506001600160581b0319811681146200016b57600080fd5b91506200017b604085016200010e565b90509250925092565b61131980620001946000396000f3fe6080604052600436106100fe5760003560e01c80638da5cb5b11610095578063ad73349e11610064578063ad73349e14610281578063ef86ce8e146102b2578063f2fde38b146102c7578063f7c618c1146102e7578063fd58e63a1461030757600080fd5b80638da5cb5b146101f9578063a2aac7ab1461022b578063a8b973a11461024b578063a935ee0e1461026157600080fd5b806347159cd9116100d157806347159cd91461019857806366666aa9146101b8578063715018a6146101ce57806376ad03bc146101e357600080fd5b80630373a23a14610103578063181031b1146101255780631d583e0d1461016157806335b9690114610174575b600080fd5b34801561010f57600080fd5b5061012361011e366004610db0565b610327565b005b34801561013157600080fd5b5060045461013f9060581b81565b6040516affffffffffffffffffffff1990911681526020015b60405180910390f35b61012361016f366004610db0565b610334565b34801561018057600080fd5b5061018a60035481565b604051908152602001610158565b3480156101a457600080fd5b506101236101b3366004610dc9565b6105c8565b3480156101c457600080fd5b5061018a60055481565b3480156101da57600080fd5b50610123610781565b3480156101ef57600080fd5b5061018a60065481565b34801561020557600080fd5b506000546001600160a01b03165b6040516001600160a01b039091168152602001610158565b34801561023757600080fd5b50610123610246366004610deb565b610795565b34801561025757600080fd5b5061018a60075481565b34801561026d57600080fd5b5061012361027c366004610e5d565b6108d9565b34801561028d57600080fd5b506102a161029c366004610db0565b6108fd565b604051610158959493929190610ef8565b3480156102be57600080fd5b506101236109c4565b3480156102d357600080fd5b506101236102e2366004610f58565b610b1f565b3480156102f357600080fd5b50600154610213906001600160a01b031681565b34801561031357600080fd5b50610123610322366004610db0565b610b5d565b61032f610b6a565b600655565b600081116103895760405162461bcd60e51b815260206004820181905260248201527f416d6f756e74206d7573742062652067726561746572207468616e207a65726f60448201526064015b60405180910390fd5b6001546001600160a01b03166103b65734600560008282546103ab9190610f97565b909155506105929050565b34156104165760405162461bcd60e51b815260206004820152602960248201527f446f206e6f742073656e6420455448207768656e207573696e6720616e204552604482015268219918103a37b5b2b760b91b6064820152608401610380565b6001546040516370a0823160e01b81523060048201526000916001600160a01b0316906370a0823190602401602060405180830381865afa15801561045f573d6000803e3d6000fd5b505050506040513d601f19601f820116820180604052508101906104839190610fb0565b6001546040516323b872dd60e01b8152336004820152306024820152604481018590529192506001600160a01b0316906323b872dd906064016020604051808303816000875af11580156104db573d6000803e3d6000fd5b505050506040513d601f19601f820116820180604052508101906104ff9190610fc9565b506001546040516370a0823160e01b81523060048201526000916001600160a01b0316906370a0823190602401602060405180830381865afa158015610549573d6000803e3d6000fd5b505050506040513d601f19601f8201168201806040525081019061056d9190610fb0565b90506105798282610feb565b6005600082825461058a9190610f97565b909155505050505b6040518181527fb1d234dd8081b3e00565c8b359ca6fa117fc7b024f75d85b6830b190bef5c76b9060200160405180910390a150565b6004546105d79060581b610b97565b600082815260026020526040812090600282015460ff1660018111156105ff576105ff610ee2565b1461064c5760405162461bcd60e51b815260206004820152601c60248201527f5375626d697373696f6e20616c7265616479206576616c7561746564000000006044820152606401610380565b60028101805460ff19166001179055600381018290556000808313156107405760006007548461067c9190610ffe565b90508060065461068c9190610f97565b915060055482111561069e5760055491505b811561073e5781836004018190555081600560008282546106bf9190610feb565b9091555050600154835460405163a9059cbb60e01b81526001600160a01b0391821660048201526024810185905291169063a9059cbb906044016020604051808303816000875af1158015610718573d6000803e3d6000fd5b505050506040513d601f19601f8201168201806040525081019061073c9190610fc9565b505b505b604080518481526020810183905285917fb0bf63464a60700d95b565361655ec908839d1b5d87e52adb8888c1e5d765347910160405180910390a250505050565b610789610b6a565b6107936000610c8a565b565b60038054600091826107a683611015565b9190505590506040518060a00160405280336001600160a01b0316815260200184848080601f0160208091040260200160405190810160405280939291908181526020018383808284376000920182905250938552505060209092019150815260006020808301829052604092830182905284825260028152919020825181546001600160a01b0319166001600160a01b0390911617815590820151600182019061085190826110cc565b50604082015160028201805460ff19166001838181111561087457610874610ee2565b02179055506060820151816003015560808201518160040155905050336001600160a01b0316817f44c61fd17e57b81ca5e1615d6386f752dfe280ab0c29be7c7973c3618ba006b385856040516108cc92919061118c565b60405180910390a3505050565b6108e1610b6a565b600480546001600160a81b03191660589290921c919091179055565b600260205260009081526040902080546001820180546001600160a01b03909216929161092990611044565b80601f016020809104026020016040519081016040528092919081815260200182805461095590611044565b80156109a25780601f10610977576101008083540402835291602001916109a2565b820191906000526020600020905b81548152906001019060200180831161098557829003601f168201915b5050505060028301546003840154600490940154929360ff9091169290915085565b6109cc610b6a565b6001546040516370a0823160e01b81523060048201526000916001600160a01b0316906370a0823190602401602060405180830381865afa158015610a15573d6000803e3d6000fd5b505050506040513d601f19601f82011682018060405250810190610a399190610fb0565b905060008111610a825760405162461bcd60e51b81526020600482015260146024820152734e6f2066756e647320746f20776974686472617760601b6044820152606401610380565b60006005556001546001600160a01b031663a9059cbb610aaa6000546001600160a01b031690565b6040516001600160e01b031960e084901b1681526001600160a01b039091166004820152602481018490526044016020604051808303816000875af1158015610af7573d6000803e3d6000fd5b505050506040513d601f19601f82011682018060405250810190610b1b9190610fc9565b5050565b610b27610b6a565b6001600160a01b038116610b5157604051631e4fbdf760e01b815260006004820152602401610380565b610b5a81610c8a565b50565b610b65610b6a565b600755565b6000546001600160a01b031633146107935760405163118cdaa760e01b8152336004820152602401610380565b600080610c166040518060400160405280601781526020017f726f666c2e4973417574686f72697a65644f726967696e00000000000000000081525084604051602001610c029190605560f81b81526affffffffffffffffffffff1991909116600182015260160190565b604051602081830303815290604052610cda565b915091508167ffffffffffffffff166000141580610c3657508051600114155b80610c67575080600081518110610c4f57610c4f6111bb565b6020910101516001600160f81b03191660f560f81b14155b15610c8557604051636890282f60e01b815260040160405180910390fd5b505050565b600080546001600160a01b038381166001600160a01b0319831681178455604051919092169283917f8be0079c531659141344cd1fd0a4f28419497f9722a3daafe3b4186f6b6457e09190a35050565b600060606000807301000000000000000000000000000000000001036001600160a01b03168686604051602001610d129291906111d1565b60408051601f1981840301815290829052610d2c916111ff565b600060405180830381855afa9150503d8060008114610d67576040519150601f19603f3d011682016040523d82523d6000602084013e610d6c565b606091505b509150915081610d8f57604051631205d29f60e31b815260040160405180910390fd5b80806020019051810190610da3919061121b565b9097909650945050505050565b600060208284031215610dc257600080fd5b5035919050565b60008060408385031215610ddc57600080fd5b50508035926020909101359150565b60008060208385031215610dfe57600080fd5b823567ffffffffffffffff80821115610e1657600080fd5b818501915085601f830112610e2a57600080fd5b813581811115610e3957600080fd5b866020828501011115610e4b57600080fd5b60209290920196919550909350505050565b600060208284031215610e6f57600080fd5b81356affffffffffffffffffffff1981168114610e8b57600080fd5b9392505050565b60005b83811015610ead578181015183820152602001610e95565b50506000910152565b60008151808452610ece816020860160208601610e92565b601f01601f19169290920160200192915050565b634e487b7160e01b600052602160045260246000fd5b6001600160a01b038616815260a060208201819052600090610f1c90830187610eb6565b905060028510610f3c57634e487b7160e01b600052602160045260246000fd5b8460408301528360608301528260808301529695505050505050565b600060208284031215610f6a57600080fd5b81356001600160a01b0381168114610e8b57600080fd5b634e487b7160e01b600052601160045260246000fd5b80820180821115610faa57610faa610f81565b92915050565b600060208284031215610fc257600080fd5b5051919050565b600060208284031215610fdb57600080fd5b81518015158114610e8b57600080fd5b81810381811115610faa57610faa610f81565b8082028115828204841417610faa57610faa610f81565b60006001820161102757611027610f81565b5060010190565b634e487b7160e01b600052604160045260246000fd5b600181811c9082168061105857607f821691505b60208210810361107857634e487b7160e01b600052602260045260246000fd5b50919050565b601f821115610c8557600081815260208120601f850160051c810160208610156110a55750805b601f850160051c820191505b818110156110c4578281556001016110b1565b505050505050565b815167ffffffffffffffff8111156110e6576110e661102e565b6110fa816110f48454611044565b8461107e565b602080601f83116001811461112f57600084156111175750858301515b600019600386901b1c1916600185901b1785556110c4565b600085815260208120601f198616915b8281101561115e5788860151825594840194600190910190840161113f565b508582101561117c5787850151600019600388901b60f8161c191681555b5050505050600190811b01905550565b60208152816020820152818360408301376000818301604090810191909152601f909201601f19160101919050565b634e487b7160e01b600052603260045260246000fd5b6040815260006111e46040830185610eb6565b82810360208401526111f68185610eb6565b95945050505050565b60008251611211818460208701610e92565b9190910192915050565b6000806040838503121561122e57600080fd5b825167ffffffffffffffff808216821461124757600080fd5b60208501519193508082111561125c57600080fd5b818501915085601f83011261127057600080fd5b8151818111156112825761128261102e565b604051601f8201601f19908116603f011681019083821181831017156112aa576112aa61102e565b816040528281528860208487010111156112c357600080fd5b6112d4836020830160208801610e92565b8095505050505050925092905056fea26469706673582212200a3b77cb84298f22bf1b3abfc961b88dd18a69ca6ac68c4f60dcb0093359f54964736f6c63430008140033",
  "linkReferences": {},
  "deployedLinkReferences": {}
}